{
  "contractName": "CoinFlipper",
  "abi": [
    {
      "inputs": [],
      "payable": false,
      "stateMutability": "nonpayable",
      "type": "constructor"
    },
    {
      "constant": false,
      "inputs": [],
      "name": "HouseBetting",
      "outputs": [],
      "payable": true,
      "stateMutability": "payable",
      "type": "function"
    },
    {
      "constant": true,
      "inputs": [],
      "name": "getEndowmentBalance",
      "outputs": [
        {
          "name": "",
          "type": "uint256"
        }
      ],
      "payable": false,
      "stateMutability": "view",
      "type": "function"
    },
    {
      "constant": false,
      "inputs": [
        {
          "name": "betnumber",
          "type": "uint256"
        }
      ],
      "name": "betAndFlip",
      "outputs": [],
      "payable": true,
      "stateMutability": "payable",
      "type": "function"
    },
    {
      "constant": true,
      "inputs": [],
      "name": "getGambler",
      "outputs": [
        {
          "name": "",
          "type": "address"
        }
      ],
      "payable": false,
      "stateMutability": "view",
      "type": "function"
    },
    {
      "constant": true,
      "inputs": [],
      "name": "getHouse",
      "outputs": [
        {
          "name": "",
          "type": "address"
        }
      ],
      "payable": false,
      "stateMutability": "view",
      "type": "function"
    },
    {
      "constant": true,
      "inputs": [],
      "name": "getLastBlockNumberUsed",
      "outputs": [
        {
          "name": "",
          "type": "uint256"
        }
      ],
      "payable": false,
      "stateMutability": "view",
      "type": "function"
    },
    {
      "constant": true,
      "inputs": [],
      "name": "getLastBlockHashUsed",
      "outputs": [
        {
          "name": "",
          "type": "bytes32"
        }
      ],
      "payable": false,
      "stateMutability": "view",
      "type": "function"
    },
    {
      "constant": true,
      "inputs": [],
      "name": "getResultOfLastFlip",
      "outputs": [
        {
          "name": "",
          "type": "string"
        }
      ],
      "payable": false,
      "stateMutability": "view",
      "type": "function"
    },
    {
      "constant": true,
      "inputs": [],
      "name": "getPlayerGainLossOnLastFlip",
      "outputs": [
        {
          "name": "",
          "type": "int256"
        }
      ],
      "payable": false,
      "stateMutability": "view",
      "type": "function"
    },
    {
      "constant": false,
      "inputs": [],
      "name": "kill",
      "outputs": [],
      "payable": false,
      "stateMutability": "nonpayable",
      "type": "function"
    }
  ],
  "bytecode": "0x608060405234801561001057600080fd5b50336000806101000a81548173ffffffffffffffffffffffffffffffffffffffff021916908373ffffffffffffffffffffffffffffffffffffffff1602179055506040805190810160405280600d81526020017f6e6f2077616765727320796574000000000000000000000000000000000000008152506002908051906020019061009c9291906100aa565b50600060018190555061014f565b828054600181600116156101000203166002900490600052602060002090601f016020900481019282601f106100eb57805160ff1916838001178555610119565b82800160010185558215610119579182015b828111156101185782518255916020019190600101906100fd565b5b509050610126919061012a565b5090565b61014c91905b80821115610148576000816000905550600101610130565b5090565b90565b610c708061015e6000396000f3006080604052600436106100a4576000357c0100000000000000000000000000000000000000000000000000000000900463ffffffff16806304e2064f146100a95780630efafd011461010057806334dbe44d1461012b5780633ef7c1761461015657806341c0e1b5146101765780635acce36b1461018d57806391558cfd146101b857806394c3fa2e1461020f578063cee6f93c14610242578063d68535bf146102d2575b600080fd5b3480156100b557600080fd5b506100be6102dc565b604051808273ffffffffffffffffffffffffffffffffffffffff1673ffffffffffffffffffffffffffffffffffffffff16815260200191505060405180910390f35b34801561010c57600080fd5b50610115610305565b6040518082815260200191505060405180910390f35b34801561013757600080fd5b5061014061030f565b6040518082815260200191505060405180910390f35b61017460048036038101908080359060200190929190505050610319565b005b34801561018257600080fd5b5061018b61083c565b005b34801561019957600080fd5b506101a26108cd565b6040518082815260200191505060405180910390f35b3480156101c457600080fd5b506101cd610905565b604051808273ffffffffffffffffffffffffffffffffffffffff1673ffffffffffffffffffffffffffffffffffffffff16815260200191505060405180910390f35b34801561021b57600080fd5b5061022461092f565b60405180826000191660001916815260200191505060405180910390f35b34801561024e57600080fd5b50610257610939565b6040518080602001828103825283818151815260200191508051906020019080838360005b8381101561029757808201518184015260208101905061027c565b50505050905090810190601f1680156102c45780820380516001836020036101000a031916815260200191505b509250505060405180910390f35b6102da6109db565b005b60008060009054906101000a900473ffffffffffffffffffffffffffffffffffffffff16905090565b6000600154905090565b6000600354905090565b60008060006fffffffffffffffffffffffffffffffff3411156103c5576040805190810160405280600f81526020017f776167657220746f6f206c61726765000000000000000000000000000000000081525060029080519060200190610381929190610b9f565b5060006001819055503373ffffffffffffffffffffffffffffffffffffffff166108fc349081150290604051600060405180830381858888f1935050505050610836565b600560009054906101000a90046fffffffffffffffffffffffffffffffff166fffffffffffffffffffffffffffffffff163411156104b357606060405190810160405280602b81526020017f7761676572206c6172676572207468616e20636f6e747261637427732061626981526020017f6c69747920746f207061790000000000000000000000000000000000000000008152506002908051906020019061046f929190610b9f565b5060006001819055503373ffffffffffffffffffffffffffffffffffffffff166108fc349081150290604051600060405180830381858888f1935050505050610836565b6000341415610515576040805190810160405280600e81526020017f776167657220776173207a65726f00000000000000000000000000000000000081525060029080519060200190610507929190610b9f565b506000600181905550610836565b60008414158015610527575060018414155b156105ac57606060405190810160405280602781526020017f746865206e756d62657220796f75206265742063616e2065697468657220626581526020017f2031206f722030000000000000000000000000000000000000000000000000008152506002908051906020019061059e929190610b9f565b506000600181905550610836565b33600660006101000a81548173ffffffffffffffffffffffffffffffffffffffff021916908373ffffffffffffffffffffffffffffffffffffffff160217905550349250600143036003819055506003544060048160001916905550826004546001900401915061061c82610ae0565b90508360028281151561062b57fe5b0614151561072b577fffffffffffffffffffffffffffffffffffffffffffffffffffffffffffffffff836fffffffffffffffffffffffffffffffff16026001819055506040805190810160405280600481526020017f6c6f737300000000000000000000000000000000000000000000000000000000815250600290805190602001906106b9929190610b9f565b506000809054906101000a900473ffffffffffffffffffffffffffffffffffffffff1673ffffffffffffffffffffffffffffffffffffffff166108fc600285026fffffffffffffffffffffffffffffffff169081150290604051600060405180830381858888f19350505050506107dc565b826fffffffffffffffffffffffffffffffff166001819055506040805190810160405280600381526020017f77696e00000000000000000000000000000000000000000000000000000000008152506002908051906020019061078f929190610b9f565b503373ffffffffffffffffffffffffffffffffffffffff166108fc600285026fffffffffffffffffffffffffffffffff169081150290604051600060405180830381858888f19350505050505b82600560009054906101000a90046fffffffffffffffffffffffffffffffff1603600560006101000a8154816fffffffffffffffffffffffffffffffff02191690836fffffffffffffffffffffffffffffffff1602179055505b50505050565b6000809054906101000a900473ffffffffffffffffffffffffffffffffffffffff1673ffffffffffffffffffffffffffffffffffffffff163373ffffffffffffffffffffffffffffffffffffffff1614156108cb576000809054906101000a900473ffffffffffffffffffffffffffffffffffffffff1673ffffffffffffffffffffffffffffffffffffffff16ff5b565b6000600560009054906101000a90046fffffffffffffffffffffffffffffffff166fffffffffffffffffffffffffffffffff16905090565b6000600660009054906101000a900473ffffffffffffffffffffffffffffffffffffffff16905090565b6000600454905090565b606060028054600181600116156101000203166002900480601f0160208091040260200160405190810160405280929190818152602001828054600181600116156101000203166002900480156109d15780601f106109a6576101008083540402835291602001916109d1565b820191906000526020600020905b8154815290600101906020018083116109b457829003601f168201915b5050505050905090565b3373ffffffffffffffffffffffffffffffffffffffff166000809054906101000a900473ffffffffffffffffffffffffffffffffffffffff1673ffffffffffffffffffffffffffffffffffffffff16141515610aa557606060405190810160405280602681526020017f6f6e6c792074686520637265617465722063616e20757365207468697320667581526020017f6e6374696f6e000000000000000000000000000000000000000000000000000081525060029080519060200190610aa3929190610b9f565b505b34600560006101000a8154816fffffffffffffffffffffffffffffffff02191690836fffffffffffffffffffffffffffffffff160217905550565b600044414260045485604051808681526020018573ffffffffffffffffffffffffffffffffffffffff1673ffffffffffffffffffffffffffffffffffffffff166c010000000000000000000000000281526014018481526020018360001916600019168152602001826fffffffffffffffffffffffffffffffff166fffffffffffffffffffffffffffffffff16700100000000000000000000000000000000028152601001955050505050506040518091039020600190049050919050565b828054600181600116156101000203166002900490600052602060002090601f016020900481019282601f10610be057805160ff1916838001178555610c0e565b82800160010185558215610c0e579182015b82811115610c0d578251825591602001919060010190610bf2565b5b509050610c1b9190610c1f565b5090565b610c4191905b80821115610c3d576000816000905550600101610c25565b5090565b905600a165627a7a723058201b9a07f524c65dfc56c51e7982dd3b7e12937f5d4184bedc223dd7c7287c9bfa0029",
  "source": "contract CoinFlipper {\n\n    address creator;\n    int lastgainloss;\n    string lastresult;\n    uint lastblocknumberused;\n    bytes32 lastblockhashused;\n    uint128 bidmoney;\n    address gambler;\n    \n    function CoinFlipper() \n    {\n        creator = msg.sender; \t\t\t\t\t\t\t\t\n        lastresult = \"no wagers yet\";\n        lastgainloss = 0;\n    }\n\t\n\tfunction HouseBetting() public payable {\n\t    if (creator!=msg.sender){\n\t        lastresult=\"only the creater can use this function\";\n\t    }\n\t    bidmoney=uint128(msg.value);\n\t}\n\t\n    function getEndowmentBalance() constant returns (uint)\n    {\n    \treturn bidmoney;\n    }\n    \n    // this is probably unnecessary and gas-wasteful. The lastblockhashused should be random enough. Adding the rest of these deterministic factors doesn't change anything. \n    // This does, however, let the bettor introduce a random seed by wagering different amounts. wagering 1 ETH will produce a completely different hash than 1.000000001 ETH\n    \n    function sha(uint128 wager) constant private returns(uint256)  \t// DISCLAIMER: This is pretty random... but not truly random.\n    { \n        return uint256(sha3(block.difficulty, block.coinbase, now, lastblockhashused, wager));  \n    }\n    \n    function betAndFlip(uint256 betnumber) public payable              \n    {\n    \tif(msg.value > 340282366920938463463374607431768211455)  \t// value can't be larger than (2^128 - 1) which is the uint128 limit\n    \t{\n    \t\tlastresult = \"wager too large\";\n    \t\tlastgainloss = 0;\n    \t\tmsg.sender.send(msg.value); // return wager\n    \t\treturn;\n    \t}\t\t  \n    \telse if((msg.value) > bidmoney) \t\t\t\t\t// contract has to have 2*wager funds to be able to pay out. (current balance INCLUDES the wager sent)\n    \t{\n    \t\tlastresult = \"wager larger than contract's ability to pay\";\n    \t\tlastgainloss = 0;\n    \t\tmsg.sender.send(msg.value); // return wager\n    \t\treturn;\n    \t}\n    \telse if (msg.value == 0)\n    \t{\n    \t\tlastresult = \"wager was zero\";\n    \t\tlastgainloss = 0;\n    \t\t// nothing wagered, nothing returned\n    \t\treturn;\n    \t}else if(betnumber!= uint256(0) && betnumber!=uint(1) ){\n    \t    lastresult= \"the number you bet can either be 1 or 0\";\n    \t    lastgainloss = 0;\n    \t    return ;\n    \t}\n    \tgambler=msg.sender;\n    \tuint128 wager = uint128(msg.value);          \t\t\t\t// limiting to uint128 guarantees that conversion to int256 will stay positive\n\n    \tlastblocknumberused = block.number - 1 ;\n    \tlastblockhashused = block.blockhash(lastblocknumberused);\n    \tuint128 lastblockhashused_uint = uint128(lastblockhashused) + wager;\n    \tuint hashymchasherton = sha(lastblockhashused_uint);\n    \t\n\t    if( hashymchasherton % 2 != betnumber )\n\t   \t{\n\t    \tlastgainloss = int(wager) * -1;\n\t    \tlastresult = \"loss\";\n\t    \t// they lost. Return nothing.\n\t    \tcreator.send(wager*2);\n\t    }\n\t    else\n\t    {\n\t    \tlastgainloss = wager;\n\t    \tlastresult = \"win\";\n\t    \tmsg.sender.send(wager * 2);  // They won. Return bet and winnings.\n\t    } \t\t\n\t    bidmoney=bidmoney-wager;\n\t    \n    }\n    \n    function getGambler() constant returns(address){\n        return gambler;\n    }\n    \n    function getHouse() constant returns(address){\n        return creator;\n    }\n    \n  \tfunction getLastBlockNumberUsed() constant returns (uint)\n    {\n        return lastblocknumberused;\n    }\n    \n    function getLastBlockHashUsed() constant returns (bytes32)\n    {\n    \treturn lastblockhashused;\n    }\n\n    function getResultOfLastFlip() constant returns (string)\n    {\n    \treturn lastresult;\n    }\n    \n    function getPlayerGainLossOnLastFlip() constant returns (int)\n    {\n    \treturn lastgainloss;\n    }\n        \n    /**********\n     Standard kill() function to recover funds \n     **********/\n    \n    function kill()\n    { \n        if (msg.sender == creator)\n            suicide(creator);  // kills this contract and sends remaining funds back to creator\n    }\n}\n",
  "sourcePath": "/home/Zhangjun/election_react/contracts/CoinFlipper.sol",
  "compiler": {
    "name": "solc",
    "version": "0.4.24+commit.e67f0147.Emscripten.clang"
  },
  "schemaVersion": "2.0.1",
  "updatedAt": "2018-12-17T01:19:04.455Z"
}