{
  "contractName": "CoinFlipper",
  "abi": [
    {
      "inputs": [],
      "payable": false,
      "stateMutability": "nonpayable",
      "type": "constructor"
    },
    {
      "constant": false,
      "inputs": [],
      "name": "HouseBetting",
      "outputs": [],
      "payable": true,
      "stateMutability": "payable",
      "type": "function"
    },
    {
      "constant": true,
      "inputs": [],
      "name": "getEndowmentBalance",
      "outputs": [
        {
          "name": "",
          "type": "uint256"
        }
      ],
      "payable": false,
      "stateMutability": "view",
      "type": "function"
    },
    {
      "constant": false,
      "inputs": [
        {
          "name": "betnumber",
          "type": "uint256"
        }
      ],
      "name": "betAndFlip",
      "outputs": [],
      "payable": true,
      "stateMutability": "payable",
      "type": "function"
    },
    {
      "constant": true,
      "inputs": [],
      "name": "getGambler",
      "outputs": [
        {
          "name": "",
          "type": "address"
        }
      ],
      "payable": false,
      "stateMutability": "view",
      "type": "function"
    },
    {
      "constant": true,
      "inputs": [],
      "name": "getHouse",
      "outputs": [
        {
          "name": "",
          "type": "address"
        }
      ],
      "payable": false,
      "stateMutability": "view",
      "type": "function"
    },
    {
      "constant": true,
      "inputs": [],
      "name": "getLastBlockNumberUsed",
      "outputs": [
        {
          "name": "",
          "type": "uint256"
        }
      ],
      "payable": false,
      "stateMutability": "view",
      "type": "function"
    },
    {
      "constant": true,
      "inputs": [],
      "name": "getLastBlockHashUsed",
      "outputs": [
        {
          "name": "",
          "type": "bytes32"
        }
      ],
      "payable": false,
      "stateMutability": "view",
      "type": "function"
    },
    {
      "constant": true,
      "inputs": [],
      "name": "getResultOfLastFlip",
      "outputs": [
        {
          "name": "",
          "type": "string"
        }
      ],
      "payable": false,
      "stateMutability": "view",
      "type": "function"
    },
    {
      "constant": true,
      "inputs": [],
      "name": "getPlayerGainLossOnLastFlip",
      "outputs": [
        {
          "name": "",
          "type": "int256"
        }
      ],
      "payable": false,
      "stateMutability": "view",
      "type": "function"
    },
    {
      "constant": false,
      "inputs": [],
      "name": "kill",
      "outputs": [],
      "payable": false,
      "stateMutability": "nonpayable",
      "type": "function"
    }
  ],
  "bytecode": "0x608060405234801561001057600080fd5b50336000806101000a81548173ffffffffffffffffffffffffffffffffffffffff021916908373ffffffffffffffffffffffffffffffffffffffff1602179055506040805190810160405280601681526020017f6e6f2062616c616e636520696e20636f6e7472616374000000000000000000008152506002908051906020019061009c9291906100e4565b5060006001819055506000600560006101000a8154816fffffffffffffffffffffffffffffffff02191690836fffffffffffffffffffffffffffffffff160217905550610189565b828054600181600116156101000203166002900490600052602060002090601f016020900481019282601f1061012557805160ff1916838001178555610153565b82800160010185558215610153579182015b82811115610152578251825591602001919060010190610137565b5b5090506101609190610164565b5090565b61018691905b8082111561018257600081600090555060010161016a565b5090565b90565b610cb7806101986000396000f3006080604052600436106100a4576000357c0100000000000000000000000000000000000000000000000000000000900463ffffffff16806304e2064f146100a95780630efafd011461010057806334dbe44d1461012b5780633ef7c1761461015657806341c0e1b5146101765780635acce36b1461018d57806391558cfd146101b857806394c3fa2e1461020f578063cee6f93c14610242578063d68535bf146102d2575b600080fd5b3480156100b557600080fd5b506100be6102dc565b604051808273ffffffffffffffffffffffffffffffffffffffff1673ffffffffffffffffffffffffffffffffffffffff16815260200191505060405180910390f35b34801561010c57600080fd5b50610115610305565b6040518082815260200191505060405180910390f35b34801561013757600080fd5b5061014061030f565b6040518082815260200191505060405180910390f35b61017460048036038101908080359060200190929190505050610319565b005b34801561018257600080fd5b5061018b610863565b005b34801561019957600080fd5b506101a26108f4565b6040518082815260200191505060405180910390f35b3480156101c457600080fd5b506101cd61092c565b604051808273ffffffffffffffffffffffffffffffffffffffff1673ffffffffffffffffffffffffffffffffffffffff16815260200191505060405180910390f35b34801561021b57600080fd5b50610224610956565b60405180826000191660001916815260200191505060405180910390f35b34801561024e57600080fd5b50610257610960565b6040518080602001828103825283818151815260200191508051906020019080838360005b8381101561029757808201518184015260208101905061027c565b50505050905090810190601f1680156102c45780820380516001836020036101000a031916815260200191505b509250505060405180910390f35b6102da610a02565b005b60008060009054906101000a900473ffffffffffffffffffffffffffffffffffffffff16905090565b6000600154905090565b6000600354905090565b60008060006fffffffffffffffffffffffffffffffff3411156103ec57606060405190810160405280602481526020017f796f752063616e6e6f7420626574206c6172676572207468616e20325e31323881526020017f202d203100000000000000000000000000000000000000000000000000000000815250600290805190602001906103a8929190610be6565b5060006001819055503373ffffffffffffffffffffffffffffffffffffffff166108fc349081150290604051600060405180830381858888f193505050505061085d565b600560009054906101000a90046fffffffffffffffffffffffffffffffff166fffffffffffffffffffffffffffffffff163411156104da57606060405190810160405280603181526020017f74686520636f6e74726163742063616e6e6f74207061792064756520746f206c81526020017f61636b696e67206f662062616c616e636500000000000000000000000000000081525060029080519060200190610496929190610be6565b5060006001819055503373ffffffffffffffffffffffffffffffffffffffff166108fc349081150290604051600060405180830381858888f193505050505061085d565b600034141561053c576040805190810160405280601d81526020017f796f752073686f756c642070757420736f6d65206d6f6e657920696e200000008152506002908051906020019061052e929190610be6565b50600060018190555061085d565b6000841415801561054e575060018414155b156105d357606060405190810160405280602781526020017f746865206e756d62657220796f75206265742063616e2065697468657220626581526020017f2031206f72203000000000000000000000000000000000000000000000000000815250600290805190602001906105c5929190610be6565b50600060018190555061085d565b33600660006101000a81548173ffffffffffffffffffffffffffffffffffffffff021916908373ffffffffffffffffffffffffffffffffffffffff160217905550349250600143036003819055506003544060048160001916905550826004546001900401915061064382610b27565b90508360028281151561065257fe5b06141515610752577fffffffffffffffffffffffffffffffffffffffffffffffffffffffffffffffff836fffffffffffffffffffffffffffffffff16026001819055506040805190810160405280600d81526020017f67616d626c6572206c6f73657300000000000000000000000000000000000000815250600290805190602001906106e0929190610be6565b506000809054906101000a900473ffffffffffffffffffffffffffffffffffffffff1673ffffffffffffffffffffffffffffffffffffffff166108fc600285026fffffffffffffffffffffffffffffffff169081150290604051600060405180830381858888f1935050505050610803565b826fffffffffffffffffffffffffffffffff166001819055506040805190810160405280600c81526020017f67616d626c65722077696e730000000000000000000000000000000000000000815250600290805190602001906107b6929190610be6565b503373ffffffffffffffffffffffffffffffffffffffff166108fc600285026fffffffffffffffffffffffffffffffff169081150290604051600060405180830381858888f19350505050505b82600560009054906101000a90046fffffffffffffffffffffffffffffffff1603600560006101000a8154816fffffffffffffffffffffffffffffffff02191690836fffffffffffffffffffffffffffffffff1602179055505b50505050565b6000809054906101000a900473ffffffffffffffffffffffffffffffffffffffff1673ffffffffffffffffffffffffffffffffffffffff163373ffffffffffffffffffffffffffffffffffffffff1614156108f2576000809054906101000a900473ffffffffffffffffffffffffffffffffffffffff1673ffffffffffffffffffffffffffffffffffffffff16ff5b565b6000600560009054906101000a90046fffffffffffffffffffffffffffffffff166fffffffffffffffffffffffffffffffff16905090565b6000600660009054906101000a900473ffffffffffffffffffffffffffffffffffffffff16905090565b6000600454905090565b606060028054600181600116156101000203166002900480601f0160208091040260200160405190810160405280929190818152602001828054600181600116156101000203166002900480156109f85780601f106109cd576101008083540402835291602001916109f8565b820191906000526020600020905b8154815290600101906020018083116109db57829003601f168201915b5050505050905090565b3373ffffffffffffffffffffffffffffffffffffffff166000809054906101000a900473ffffffffffffffffffffffffffffffffffffffff1673ffffffffffffffffffffffffffffffffffffffff16141515610acc57606060405190810160405280602681526020017f6f6e6c792074686520637265617465722063616e20757365207468697320667581526020017f6e6374696f6e000000000000000000000000000000000000000000000000000081525060029080519060200190610aca929190610be6565b505b34600560009054906101000a90046fffffffffffffffffffffffffffffffff1601600560006101000a8154816fffffffffffffffffffffffffffffffff02191690836fffffffffffffffffffffffffffffffff160217905550565b600044414260045485604051808681526020018573ffffffffffffffffffffffffffffffffffffffff1673ffffffffffffffffffffffffffffffffffffffff166c010000000000000000000000000281526014018481526020018360001916600019168152602001826fffffffffffffffffffffffffffffffff166fffffffffffffffffffffffffffffffff16700100000000000000000000000000000000028152601001955050505050506040518091039020600190049050919050565b828054600181600116156101000203166002900490600052602060002090601f016020900481019282601f10610c2757805160ff1916838001178555610c55565b82800160010185558215610c55579182015b82811115610c54578251825591602001919060010190610c39565b5b509050610c629190610c66565b5090565b610c8891905b80821115610c84576000816000905550600101610c6c565b5090565b905600a165627a7a723058205731f8e0210bb2752fe7635e35edb039877c9b297abb566ce7c0bc6c712d67b10029",
  "source": "contract CoinFlipper {\n\n    address house;\n    int lastgainloss;\n    string lastresult;\n    uint lastblocknumberused;\n    bytes32 lastblockhashused;\n    uint128 bidmoney;\n    address gambler;\n    \n    function CoinFlipper() \n    {\n        house = msg.sender;                               \n        lastresult = \"no balance in contract\";\n        lastgainloss = 0;\n        bidmoney=0;\n    }\n    \n    function HouseBetting() public payable {\n        if (house!=msg.sender){\n            lastresult=\"only the creater can use this function\";\n        }\n        bidmoney=bidmoney+uint128(msg.value);\n    }\n    \n    function getEndowmentBalance() constant returns (uint)\n    {\n        return bidmoney;\n    }\n    \n   \n    function sha(uint128 wager) constant private returns(uint256)   // DISCLAIMER: This is pretty random... but not truly random.\n    { \n        return uint256(sha3(block.difficulty, block.coinbase, now, lastblockhashused, wager));  \n    }\n    \n    function betAndFlip(uint256 betnumber) public payable              \n    {\n        if(msg.value > 340282366920938463463374607431768211455)     // value can't be larger than (2^128 - 1) which is the uint128 limit\n        {\n            lastresult = \"you cannot bet larger than 2^128 - 1\";\n            lastgainloss = 0;\n            msg.sender.send(msg.value); // return wager\n            return;\n        }         \n        else if((msg.value) > bidmoney)                     // contract has to have 2*wager funds to be able to pay out. (current balance INCLUDES the wager sent)\n        {\n            lastresult = \"the contract cannot pay due to lacking of balance\";\n            lastgainloss = 0;\n            msg.sender.send(msg.value); // return wager\n            return;\n        }\n        else if (msg.value == 0)\n        {\n            lastresult = \"you should put some money in \";\n            lastgainloss = 0;\n            // nothing wagered, nothing returned\n            return;\n        }else if(betnumber!= uint256(0) && betnumber!=uint(1) ){\n            lastresult= \"the number you bet can either be 1 or 0\";\n            lastgainloss = 0;\n            return ;\n        }\n        gambler=msg.sender;\n        uint128 wager = uint128(msg.value);                         // limiting to uint128 guarantees that conversion to int256 will stay positive\n        lastblocknumberused = block.number - 1 ;\n        lastblockhashused = block.blockhash(lastblocknumberused);\n        uint128 lastblockhashused_uint = uint128(lastblockhashused) + wager;\n        uint hashymchasherton = sha(lastblockhashused_uint);\n        \n        if( hashymchasherton % 2 != betnumber )\n        {\n            lastgainloss = int(wager) * -1;\n            lastresult = \"gambler loses\";\n            // they lost. Return nothing.\n            house.send(wager*2);\n        }\n        else\n        {\n            lastgainloss = wager;\n            lastresult = \"gambler wins\";\n            msg.sender.send(wager * 2);  // They won. Return bet and winnings.\n        }       \n        bidmoney=bidmoney-wager;\n        \n    }\n    \n    function getGambler() constant returns(address){\n        return gambler;\n    }\n    \n    function getHouse() constant returns(address){\n        return house;\n    }\n    \n    function getLastBlockNumberUsed() constant returns (uint)\n    {\n        return lastblocknumberused;\n    }\n    \n    function getLastBlockHashUsed() constant returns (bytes32)\n    {\n        return lastblockhashused;\n    }\n\n    function getResultOfLastFlip() constant returns (string)\n    {\n        return lastresult;\n    }\n    \n    function getPlayerGainLossOnLastFlip() constant returns (int)\n    {\n        return lastgainloss;\n    }\n        \n    /**********\n     Standard kill() function to recover funds \n     **********/\n    \n    function kill()\n    { \n        if (msg.sender == house)\n            suicide(house);  // kills this contract and sends remaining funds back to house\n    }\n}",
  "sourcePath": "/home/Zhangjun/CoinFlipper/contracts/CoinFlipper.sol",
  "compiler": {
    "name": "solc",
    "version": "0.4.24+commit.e67f0147.Emscripten.clang"
  },
  "schemaVersion": "2.0.1",
  "updatedAt": "2018-12-27T06:14:02.455Z"
}